{
    "contractName": "ZombieFeeding",
    "abi": [
        {
            "constant": true,
            "inputs": [
                {
                    "name": "",
                    "type": "uint256"
                }
            ],
            "name": "zombies",
            "outputs": [
                {
                    "name": "name",
                    "type": "string"
                },
                {
                    "name": "dna",
                    "type": "uint256"
                }
            ],
            "payable": false,
            "stateMutability": "view",
            "type": "function"
        },
        {
            "constant": true,
            "inputs": [
                {
                    "name": "",
                    "type": "uint256"
                }
            ],
            "name": "zombieToOwner",
            "outputs": [
                {
                    "name": "",
                    "type": "address"
                }
            ],
            "payable": false,
            "stateMutability": "view",
            "type": "function"
        },
        {
            "constant": false,
            "inputs": [
                {
                    "name": "_name",
                    "type": "string"
                }
            ],
            "name": "createRandomZombie",
            "outputs": [],
            "payable": false,
            "stateMutability": "nonpayable",
            "type": "function"
        },
        {
            "anonymous": false,
            "inputs": [
                {
                    "indexed": false,
                    "name": "zombieId",
                    "type": "uint256"
                },
                {
                    "indexed": false,
                    "name": "name",
                    "type": "string"
                },
                {
                    "indexed": false,
                    "name": "dna",
                    "type": "uint256"
                }
            ],
            "name": "NewZombie",
            "type": "event"
        }
    ],
    "bytecode": "60806040526010600055662386f26fc1000060015534801561002057600080fd5b506105db806100306000396000f3fe6080604052600436106100565763ffffffff7c01000000000000000000000000000000000000000000000000000000006000350416632052465e811461005b578063528b7b8f146101045780637bff0a0114610157575b600080fd5b34801561006757600080fd5b506100856004803603602081101561007e57600080fd5b503561020c565b6040518080602001838152602001828103825284818151815260200191508051906020019080838360005b838110156100c85781810151838201526020016100b0565b50505050905090810190601f1680156100f55780820380516001836020036101000a031916815260200191505b50935050505060405180910390f35b34801561011057600080fd5b5061012e6004803603602081101561012757600080fd5b50356102c0565b6040805173ffffffffffffffffffffffffffffffffffffffff9092168252519081900360200190f35b34801561016357600080fd5b5061020a6004803603602081101561017a57600080fd5b81019060208101813564010000000081111561019557600080fd5b8201836020820111156101a757600080fd5b803590602001918460018302840111640100000000831117156101c957600080fd5b91908080601f0160208091040260200160405190810160405280939291908181526020018383808284376000920191909152509295506102e8945050505050565b005b600280548290811061021a57fe5b60009182526020918290206002918202018054604080516001831615610100026000190190921693909304601f8101859004850282018501909352828152909350918391908301828280156102b05780601f10610285576101008083540402835291602001916102b0565b820191906000526020600020905b81548152906001019060200180831161029357829003601f168201915b5050505050908060010154905082565b60036020526000908152604090205473ffffffffffffffffffffffffffffffffffffffff1681565b336000908152600460205260409020541561030257600080fd5b600061030d8261031d565b905061031982826103a9565b5050565b600080826040516020018082805190602001908083835b602083106103535780518252601f199092019160209182019101610334565b6001836020036101000a03801982511681845116808217855250505050505090500191505060405160208183030381529060405280519060200120600190049050600154818115156103a157fe5b069392505050565b60408051808201909152828152602080820183905260028054600181810180845560008481528651805191979396929593949093027f405787fa12a823e0f2b7631cc41b3ba8828b3321ca811111fa75cd3aa3bb5ace019261040f928492910190610514565b50602091820151600191820155929091036000818152600383526040808220805473ffffffffffffffffffffffffffffffffffffffff19163390811790915582526004845280822080549095019094558351828152938401869052606084840181815288519186019190915287519295507f88f026aacbbecc90c18411df4b1185fd8d9be2470f1962f192bf84a27d0704b7948694899489949293926080850192870191908190849084905b838110156104d35781810151838201526020016104bb565b50505050905090810190601f1680156105005780820380516001836020036101000a031916815260200191505b5094505050505060405180910390a1505050565b828054600181600116156101000203166002900490600052602060002090601f016020900481019282601f1061055557805160ff1916838001178555610582565b82800160010185558215610582579182015b82811115610582578251825591602001919060010190610567565b5061058e929150610592565b5090565b6105ac91905b8082111561058e5760008155600101610598565b9056fea165627a7a72305820385858328d426a7ae6e4ae03bf8e6ba5935475b7cd3d65a40b64a2517b8aba390029",
    "sourcePath": "/home/enoma/solidity/first/zombiefeeding.sol",
    "compiler": {
        "name": "solc",
        "version": "0.5.0+commit.1d4f565a"
    },
    "functionHashes": {
        "createRandomZombie(string)": "7bff0a01",
        "zombieToOwner(uint256)": "528b7b8f",
        "zombies(uint256)": "2052465e"
    },
    "gasEstimates": {
        "creation": {
            "codeDepositCost": "299800",
            "executionCost": "40349",
            "totalCost": "340149"
        },
        "external": {
            "createRandomZombie(string)": "infinite",
            "zombieToOwner(uint256)": "529",
            "zombies(uint256)": "infinite"
        }
    }
}